:020000000C945E
:10000200FA090C9400000C9400000C9400000C946B
:1000120000000C9400000C9400000C9400000C945E
:1000220000000C9400000C9400000C9400000C944E
:1000320000000C9400000C94F5110C9400000C9438
:10004200E7110C9400000C9499120C9400000C948B
:1000520000000C9400000C9400000C9400000C941E
:1000620000000C9400000C9400000C9400000C940E
:1000720000000C9414120C94BF120C9400000C9407
:1000820000000C9400000C94000024434D444144B1
:100092004A30350024434D4441444A32300024431F
:1000A2004D4441444A33300000000000000000008B
:1000B200000001000000000000000000000000003D
:1000C200000000000000000000000000000000002E
:1000D200000000000000000000000000000000001E
:1000E200000000000000000000000000000000000E
:1000F20000000000000000000000000000401C455D
:1001020000000000000000000000000000000000ED
:1001120000000000000000000000FFFFFFFF0000E1
:1001220000000000000000000000000000000D0AB6
:100132002B2B2B2B2B2B2B2B2B2B204E6174686103
:10014200706F6E67202B2B2B2B2B2B2B2B2B2B0D1E
:100152000A000D0A2B2B2B2B2B2B2B2B2B2B20535B
:100162006D61727420537769746368202B2B2B2B7B
:100172002B2B2B2B2B2B0D0A000D0A4669726D7748
:100182006172652056657273696F6E203A20253060
:100192002E31660D0A0043757272656E74205365C6
:1001A2006E736F722020203A20414353373132451B
:1001B2004C4354522D3035422D54202825302E31B7
:1001C20066206D562F416D702E290D0A000D0A2BE7
:1001D2002B2B2B2B2B2B2B2B2B20536D6172742053
:1001E200506C7567202B2B2B2B2B2B2B2B2B2B0D9A
:1001F2000A0043757272656E742053656E736F7276
:100202002020203A20414353373132454C43545247
:100212002D3230412D54202825302E3166206D5646
:100222002F416D702E290D0A000D0A2B2B2B2B2B23
:100232002B2B2B2B2B20536D617274204272656124
:100242006B6572202B2B2B2B2B2B2B2B2B2B0D0A85
:100252000043757272656E742053656E736F7220FF
:1002620020203A20414353373132454C4354522DDA
:100272003330412D54202825302E3166206D562FE3
:10028200416D702E290D0A00526561642044697027
:100292002D537769746368204552524F52210D0ADB
:1002A200000D0A2B2B2B2B2B2B2B2B2B2B204465BE
:1002B2006661756C742054797065203A20536D61C3
:1002C200727420537769746368202B2B2B2B2B2B92
:1002D2002B2B2B2B0D0A0043757272656E74204D09
:1002E20065617375726520203A203E2025302E32DA
:1002F2006620416D702E0D0A000D0A2D2D2D2D2D1B
:100302002D2D2D20496E697469616C20436F6D70CB
:100312006C657465202D2D2D2D2D2D2D2D0D0A0092
:10032200535749544348204F4E210D0A0053574911
:10033200544348204F4646210D0A00504149524934
:100342004E47204F5045524154494F4E3E20537420
:100352006172742E2E0D0A0050414952494E4720B7
:100362004F5045524154494F4E3E205842656520F8
:100372004A6F696E65642E0D0A0052455452414E11
:10038200534D49542025642074696D65730D0A002C
:1003920050414952494E47204F5045524154494FCE
:1003A2004E3E20466F756E64206E657720706172D6
:1003B200656E742E0D0A0050414952494E47204F36
:1003C2005045524154494F4E3E2050616972696E08
:1003D2006720537563636573732E0D0A00256420CD
:1003E200200050414952494E47204F5045524154F6
:1003F200494F4E3E20507265737365642042757496
:10040200746F6E2E0D0A000D0A3D3D3D3D3D3D3D92
:100412003D3D3D3D3D3D3D3D3D3D3D3D3D3D3D3D0A
:100422003D3D3D3D3D3D3D3D3D3D3D3D3D3D3D3DFA
:100432003D3D3D3D3D3D3D3D3D3D3D3D3D3D3D0D1A
:100442000A005673756D203D2025302E346620201B
:10045200004973756D203D2025302E346620200022
:100462005073756D203D2025302E34660D0A0056DE
:10047200617667203D2025302E34662020200049F9
:10048200617667203D2025302E34662020200050E2
:10049200617667203D2025302E34660D0A005761B3
:1004A20074742D486F75722053756D203D20253070
:1004B2002E34660D0A004E756D6265722053616DB1
:1004C200706C696E67203D2025640D0A003D3D3D3C
:1004D2003D3D3D3D3D3D3D3D3D3D3D3D3D3D3D3D4A
:1004E2003D3D3D3D3D3D3D3D3D3D3D3D3D3D3D3D3A
:1004F2003D3D3D3D3D3D3D3D3D3D3D3D3D3D3D3D2A
:100502003D3D3D0D0A0D0A0043757272656E742001
:10051200457863656564202D2D535749544348201F
:100522004F4646210D0A00003C44454255475F7341
:10053200657441444A3043757272656E7453656ED8
:10054200736F723E20676574207365742041444A5C
:10055200302043757272656E742053656E736F72CC
:100562003C737472696E673E2025730D0A003C4429
:10057200454255475F73657441444A304375727210
:10058200656E7453656E736F723E20416674657258
:1005920020636F6E76657274202853656E736F7276
:1005A2002035412E29203D2025302E34660D0A00AB
:1005B2003C44454255475F73657441444A30437534
:1005C2007272656E7453656E736F723E204166740B
:1005D200657220636F6E76657274202853656E7340
:1005E2006F72203230412E29203D2025302E346674
:1005F2000D0A003C44454255475F73657441444AC5
:100602003043757272656E7453656E736F723E20FD
:10061200416674657220636F6E766572742028532A
:10062200656E736F72203330412E29203D202530B4
:100632002E34660D0A000D0A476574204465627502
:100642006720526571203A200D0A0025303564205A
:100652002020002530325820002563002E003C5413
:10066200494D45525F73657454696D65723E20450C
:1006720052523A20706572696F64203D20300D0A33
:10068200003C54494D45525F73657454696D6572FF
:100692003E2062617365436F756E7465725B256C93
:1006A200645D202B20706572696F645B256C645DEC
:1006B200203D20256C64204F564552464C4F572111
:1006C200210D0A005741524E494E47203A205541CA
:1006D20052543020425546464552204F56455246C6
:1006E2004C4F572025640D0A00003C786265655F17
:1006F200726563656976655061636B65743E206DF2
:10070200616C6C6F632E2E4641494C45442E2E0D72
:100712000A007261777061636B65740D0A000D0ADD
:10072200584265652052656365697665205061634C
:100732006B6574202D2D2D0D0A002D2D2D2D2D2DA7
:100742002D0D0A007E000D0A584245453E20696E75
:1007520076616C6964206C656E67746821210D0A8C
:1007620000584245453E20636865636B73756D2092
:100772006572726F720D0A00636865636B73756DE3
:1007820020636F72726563740D0A004154434D52C7
:10079200203A20307825580D0A004D4453203A2043
:1007A2003078255820005A5453203A203078255862
:1007B200205B253032585D0D0A005A494F52584984
:1007C200203A20307825580D0A004E495F494E44A0
:1007D200203A20307825580D0A0025303258200062
:1007E2005243524553203A20307825580D0A000DC5
:1007F2000A556E6B6E6F776E2058426565204672A1
:10080200616D65205479706520282025303278206A
:100812002921210D0A005741524E494E47203A20C4
:10082200786265655F73656E64415049206D616CE5
:100832006C6F63206661696C65640D0A000D0A2D98
:100842002D2D2D2D2D2D2D2D2D2D2053656E64201A
:100852002D2D2D2D2D2D2D2D2D2D2D2D0D0A002D36
:100862002D2D2D2D2D2D2D2D2D2D2D2D2D2D2D2DB6
:100872002D2D2D2D2D2D2D2D2D2D2D2D0D0A0057EC
:1008820041524E494E47203A20786265655F736552
:100892006E644154436F6D6D616E64206D616C6C6A
:1008A2006F63206661696C65640D0A005741524EA0
:1008B200494E47203A204672616D65207479706511
:1008C200206973206E6F7420415420636F6D6D61D7
:1008D2006E64202825303258290D0A005741524EA5
:1008E200494E47203A20786265655F73656E645AA7
:1008F2005452206D616C6C6F63206661696C656433
:100902000D0A00584245453E20526573657474696C
:100912006E672058426565204D6F64756C652C20AA
:10092200706C6561736520776169742E0D0A000031
:1009320000584245453E2047657420416472657304
:1009420073204E61746861706F6E672E2E2E0D0AD1
:1009520000584245453E204C656176696E67204EDF
:100962006574776F726B2E2E2E0D0A0000005842AE
:1009720045453E2044697361626C65204A6F696E29
:10098200207363616E696E672E0D0A000100FF001D
:10099200202020202020202020486172647761726C
:1009A200652052657365740D0A00202020202020E6
:1009B2002020205761746368646F672054696D65F5
:1009C200722052657365740D0A00202020202020B9
:1009D2002020204A6F696E656420746F206E6574F2
:1009E200776F726B0D0A002020202020202020200B
:1009F2004E6574776F726B206469736173736F6392
:100A020069617465640D0A002020202020202020C6
:100A120020537461727420436F6F7264696E6174E3
:100A22006F720D0A002020202020202020205365F4
:100A3200637572697479206B6579207761732075AB
:100A42007064617465640D0A00202020202020203B
:100A52002020566F6C7461676520657863656564F4
:100A620065640D0A002020202020202020204D6FC8
:100A720064656D20636F6E666967206368616E6787
:100A8200650D0A002020202020202020204D6F64A8
:100A9200656D20537461636B206572726F720D0A0B
:100AA20000584245455F4153534F433E20496E76BD
:100AB200616C696420726573706F6E7365206C651A
:100AC2006E6774680D0A00584245455F4153534FA3
:100AD200433E09204F4B2E0D0A00584245455F41C7
:100AE20053534F433E204173736F63696174696F5F
:100AF2006E20496E6469636174696F6E205B307841
:100B0200253032585D0D0A00584245452053455262
:100B120049414C204E554D4245523E20002530322F
:100B2200582000000D0A5741524E494E47203A20A4
:100B32003C494E545F73656E6453746174757352AD
:100B420065706F7274436D643E206D616C6C6F638F
:100B52002E2E4641494C4544202825642062797452
:100B620065292E0D0A003C3C3C205B494E545F73C4
:100B7200656E645374617475735265706F727443F9
:100B82006D64205B253032585D5D2053656E64696B
:100B92006E672E2E0D0A000D0A5741524E494E47DE
:100BA200203A203C494E545F73656E644E657477FB
:100BB2006F726B4D61696E74656E616E63654163E0
:100BC2006B3E206D616C6C6F632E2E4641494C4525
:100BD20044202825642062797465292E0D0A000DAF
:100BE2000A5741524E494E47203A203C494E545FE3
:100BF20073656E64446174615265706F7274436DA3
:100C0200643E2057726F6E67207265636F72645420
:100C1200797065203078253032582E0D0A003C3C20
:100C22003C205B494E545F73656E6444617461524B
:100C320065706F7274436D645D2053656E64696E96
:100C4200672E2E0D0A000D0A5741524E494E47207B
:100C52003A203C494E545F73656E644576656E7406
:100C62005265706F7274436D643E206D616C6C6F7F
:100C7200632E2E4641494C45442028256420627942
:100C82007465292E0D0A000D0A5741524E494E47EE
:100C9200203A203C494E545F73656E644576656E1A
:100CA200745265706F7274436D643E2057726F6E3A
:100CB20067207265636F726454797065203078259D
:100CC2003032582E0D0A003C3C3C205B494E545FAA
:100CD20073656E644576656E745265706F727443A7
:100CE2006D645D2053656E64696E672E2E0D0A0079
:100CF2000D0A5741524E494E47203A203C494E5424
:100D02005F73656E644E6574776F726B4D61696E69
:100D120074656E616E6365436D643E206D616C6CDB
:100D22006F632E2E4641494C45442028256420629B
:100D3200797465292E0D0A003C3C3C205B494E54D7
:100D42005F73656E644E6574776F726B4D61696E29
:100D520074656E616E6365436D64205B3078253027
:100D620032585D5D2053656E64696E672E2E0D0AE2
:100D72000054696D654F7574203A2025640D0A0090
:100D82000D0A5741524E494E47203A203C494E5493
:100D92005F73656E645374617475735265717565C2
:100DA200737441636B3E206D616C6C6F632E2E46D3
:100DB20041494C4544202825642062797465292ED6
:100DC2000D0A003C3C3C205B494E545F73656E64E7
:100DD2005374617475735265717565737441636B95
:100DE2005D2053656E64696E672E2E0D0A003C3CD1
:100DF2003C205B494E545F73656E644E6574776F39
:100E0200726B4D61696E74656E616E636541636B91
:100E1200205B3078253032585D5D2053656E646901
:100E22006E672E2E0D0A000D0A5741524E494E474B
:100E3200203A203C494E545F73656E6452656D6F73
:100E42007465446576696365436F6E74726F6C4155
:100E5200636B3E206D616C6C6F632E2E4641494C74
:100E62004544202825642062797465292E0D0A00E4
:100E72003C3C3C205B494E545F73656E6452656D29
:100E82006F7465446576696365436F6E74726F6CE7
:100E920041636B5D2073656E64696E672E2E0D0A69
:100EA200000D0A5741524E494E47203A203C494EC6
:100EB200545F73656E6450726F746F636F6C4572CA
:100EC200726F72466565646261636B41636B3E205B
:100ED2006D616C6C6F632E2E4641494C454420284F
:100EE20025642062797465292E0D0A003C3C3C2061
:100EF2005B494E545F73656E6450726F746F636FBB
:100F02006C4572726F72466565646261636B4163C0
:100F12006B5D2053656E64696E672E2E0D0A003E6E
:100F22003E3E205354415455535F5245515545530B
:100F3200545F434D44203A20307825580D0A003E34
:100F42003E3E204E4554574F524B5F4D41494E5401
:100F5200454E414E43455F434D44203A203078256B
:100F6200580D0A003E3E3E2052454D4F54455F44C7
:100F720045564943455F434F4E54524F4C5F434D94
:100F820044203A20307825580D0A003E3E3E205338
:100F920054415455535F5245504F52545F41434B55
:100FA200203A20307825580D0A003E3E3E20455614
:100FB200454E545F5245504F52545F41434B203A85
:100FC20020307825580D0A003E3E3E2044415441CF
:100FD2005F5245504F52545F41434B203A20307884
:100FE20025580D0A003E3E3E204E4554574F524B67
:100FF2005F4D41494E54454E414E43455F41434B3F
:10100200203A20307825580D0A000D0A3E3E3E2037
:1010120050524F544F434F4C5F4552524F525F46CE
:101022004545444241434B5F41434B203A2046529F
:10103200414D452049445B3078253032585D20458A
:1010420052524F522049445B3078253032585D0D60
:101052000A0D0A000D0A3E3E3E20524543454956BE
:101062004520494E545F434F4D4D3E204672616DBF
:10107200652054797065206E6F7420646566696EB0
:10108200652079657420283078253032582921214D
:101092000D0A0D0A00000000202020202020202020
:1010A200202020202020202020202020202020203E
:1010B2002020202020202020202020202052454AAD
:1010C200454354205041434B4554204652414D45DF
:1010D2002049445B253032585D0D0A002020202033
:1010E20020202020202020202020202020202020FE
:1010F20020202020202020202020202020202020EE
:101102002052455452414E534D49542825303258AD
:10111200292025642074696D65730D0A000D0A5734
:1011220041524E494E47203A203C494E545F616439
:10113200645761697451756575653E2057616974BC
:101142002071756575652046554C4C0D0A0D0A00D7
:101152000D0A5741524E494E47203A203C494E54BF
:101162005F6164645761697451756575653E206D90
:10117200616C6C6F6328256429206661696C656403
:101182000D0A0D0A002020202020202020202020CF
:10119200202020202020202020202020202020204D
:1011A200202020202020202020204164646564200B
:1011B20028253032582920746F20494E545F7761B8
:1011C200697451756575655B25645D0D0A002020A3
:1011D200202020202020202020202020202020200D
:1011E20020202020202020202020202020202020FD
:1011F20020202052656D6F76656420282530325894
:101202002920494E545F7761697451756575655B34
:1012120025645D0D0A000D0A5741524E494E472082
:101222003A20494E545F72656D6F766557616974F5
:101232005175657565282530325829206E6F7420E6
:10124200666F756E6421210D0A0D0A00FF00FF0012
:1012520000000000FFFE000000000000000020204F
:1012620020202D204469676974616C204F75747069
:101272007574204472697665203A20004F4E2E0D17
:101282000A004F46462E0D0A00202020202D20481D
:101292006561727462656174205374617475732040
:1012A2003A203078253032580D0A00202020202D97
:1012B200204A6F696E20526571756573742053748C
:1012C20061747573203A203078253032580D0A0047
:1012D2000D0A494E545F70726F636573734E4554C5
:1012E2004D41494E413E20436F6D6D616E64206EEB
:1012F2006F7420646566696E6520796574202820A4
:1013020025303258202921210D0A005741524E49D9
:101312004E47203A20494E545F73656E64506163B4
:101322006B6574206D616C6C6F63206661696C65BE
:10133200640D0A000D0A506179202D2D2D0D0A0031
:101342002D2D2D2D2D2D2D0D0A0040005741524ED1
:10135200494E47203A205B6E6F6465416464726552
:1013620073735F726561645D2069326320427573D5
:1013720020697320627573790D0A004555492D362F
:101382003420416464726573732020203A20002562
:1013920030325820000001002D4E414E00494E4689
:1013A20000002D4E414E000001000200AA00040080
:1013B200000DAC00020000064607020002063109D9
:1013C200020004066E09020006068E090100A40648
:1013D200900901000D00981001009F064E120100B5
:1013E200A106501201000C004C130100E7089813EB
:1013F2000000F894EE27ECBBF1E0F5BFE5BFE09307
:101402006C00F8E1F1BDE1BD8DE0A2E0BB27ED93F8
:101412008A95E9F780E090E1A0E0B1E0ED930197D1
:10142200E9F7EAEAF3E185919591009761F0A591D8
:10143200B59105901590BF01F00105900D920197AD
:10144200E1F7FB01F0CF8BBFEFEFEDBFECE0EEBFBA
:10145200C0E0D6E00C943F0A1A930A930E94B82582
:101462001E2F0E94D2250E94B8250E2F011711F4BB
:10147200E12F01C0EFEF099119910895EF97EF97CE
:101482006A9780E8A8E1B0E0E0EBF0E00E94022E6B
:101492000E94F4171E2F1030D9F7E0E3F1E00E940A
:1014A200D6250E945A130E94F81CD6DF5E2F5F30A9
:1014B20031F50E94DD250E94EE254CF4DF01CB01BF
:1014C200EFE8F2EC65EF7DE30E94452C08F005C0E1
:1014D200A0E0B0E00E94A72D04C0ECEEF1E568EBBD
:1014E2007DE3E093E306F093E4066093E5067093F0
:1014F200E606E2E10E94F325E4E5F1E082C05E3017
:10150200A1F5E0E0F0E068EC72E40E94F825A4E0C6
:10151200B0E00E94A72D0E94EE254CF4DF01CB0122
:10152200E9E2FCE56FE07EE30E94452C08F005C08D
:10153200A4E0B0E00E94A72D04C0EEEAF7E461EE59
:101542007DE3E093E306F093E4066093E50670938F
:10155200E606E1E10E94F325EFECF1E00E94D625D8
:101562000E940126E4EFF1E054C05D30A1F5E0E015
:10157200F0E064E872E40E94F825A8E0B0E00E947E
:10158200A72D0E94EE254CF4DF01CB01EAE9F9E92F
:1015920069E17EE30E94452C08F005C0A8E0B0E0B6
:1015A2000E94A72D04C0EFE8F2EC65EF7DE3E09323
:1015B200E306F093E4066093E5067093E606E3E142
:1015C2000E94F325EBE2F2E00E94D6250E9401265A
:1015D200E3E5F2E01EC050302CF4EAE8F2E00E94AB
:1015E200D6251DC00E94DD25E093E306F093E406B4
:1015F2006093E5067093E606E2E10E94F325E3EAD2
:10160200F2E0FA93EA930E9410260E940126E8E98A
:10161200F1E0FA93EA930E9415260E941E265030AA
:101622000CF443CFE9EDF2E0FA93EA930E94252607
:101632000E941E267894EBEFF2E00E94D625A8E8DD
:10164200B3E10E94B22AACE0B0E00E94AF2DE130DB
:1016520029F40E942E26E2E2F3E004C00E9437261B
:10166200EFE2F3E0FA93EA930E941026EFEFE093A1
:10167200A406E0E0E093A50621E0DE01AC56BF4FF0
:10168200ED93ED93ED93EC93DE01A057BF4FED93F5
:10169200ED93ED93EC93DE01A457BF4FED93ED93E1
:1016A200ED93EC93DE01A857BF4FED93ED93ED93CD
:1016B200EC930E94402601E030E0E0E0E093A206D5
:1016C2000E949D16A8950E945A26E130A0E0FA07D2
:1016D20081F4EDE3F3E00E94D625FE01E558FF4FC9
:1016E2000E945D260E94D416E1E0E093190602E012
:1016F2000FC1E230A0E0FA07C9F4E091A306E0309E
:1017020071F4E091A506E03021F0E091A406E0300A
:1017120009F402C00E94D4160E94F51306C0EAE53D
:10172200F3E00E94D62503E0F3C0F2C0E330A0E06C
:10173200FA0711F00C94E90BE091A306E03011F4E2
:101742000C94E60B0E94F513E0919E06E030A9F09E
:10175200E0919F06E03021F407E00E946726D8C09E
:10176200A0919F06A13049F40E94B8160E94D2258A
:1017720001E00E94672630E0CBC0DE01AC56BF4FCD
:101782000D901D908D919C91D0010E9486113097F1
:1017920021F0E0919E06E03009F016C0333028F0C7
:1017A2000E94B81630E001E0B3C00E946E26E1E16B
:1017B200EA930E9477260E9477260E947C26FE01E9
:1017C200EC56FF4F0E94802602C001E0A1C0A0C0DB
:1017D200E430A0E0FA0751F40E94B8160E948A266B
:1017E2000E94B22A0E94D41605E092C0E530A0E021
:1017F200FA07E9F4E091A306E03071F4E091A5065E
:10180200E03021F0E091A406E03009F402C00E9429
:10181200D4160E94F5130AC0E2E9F3E00E94D6252D
:10182200A8EEB3E00E94B22A06E072C071C0E630B0
:10183200A0E0FA0711F00C94690CE091A306E030E5
:1018420011F40C94660C0E94F513E091A006E030AE
:10185200A9F0E091A106E03021F407E00E948D2674
:1018620057C0A091A106A13049F40E94B8160E9467
:10187200D22530E001E00E948D264AC0DE01A05749
:10188200BF4F0D901D908D919C91D0010E948611A9
:10189200309721F0E091A006E03009F015C0333016
:1018A20018F030E004E034C00E946E26E0E3EA93D0
:1018B200FE01E458FF4F0E9494260E947C26FE01FE
:1018C200E057FF4F0E94802602C001E021C020C0E5
:1018D200E730A0E0FA07E1F4E9EBF3E00E94D62555
:1018E200E1E0E093A206E0E0E0931906AF9800E0A1
:1018F200A8EBBBE00E94B22AAF9AA4EFB1E00E942B
:10190200B22AA0910806A13011F4AF9801C0AF9A93
:10191200E091AE06E03011F00E948A10989902C060
:10192200E1E001C0E0E0E0931606989B04C0A091BC
:101932001506A03009F42EC0EFEDF3E0FA93EA9316
:10194200E09115060E949B26033021F4A091150612
:10195200A63008F40BC0E4EEF3E00E94D625A8EE10
:10196200B3E00E94B22A30E004E011C0E091080620
:10197200E03029F40E942E260E949F2604C00E9475
:1019820037260E94A726FA93EA930E941026E0E0E7
:10199200E0931506013008F095CEA895E091A306D4
:1019A200E03011F40C943010E091AE06E03011F00A
:1019B2000E948A10989902C0E1E001C0E0E0E09341
:1019C2001606989B04C0A0911506A03009F429C000
:1019D200A0911506A63010F5E0910806E03061F4FA
:1019E2000E942E26AF980E949F260E94D6250E9412
:1019F200AF26FE01B2960CC00E9437260E94BA267C
:101A02000E94A7260E94D6250E94AF26FE017E963E
:101A1200FA93EA930E948A260E944719E0E0E09333
:101A22001506E0911806E03011F40C94850DE0E003
:101A3200E0931806A1E00E94CD26AAE1B7E68CE960
:101A420090E40E94B22BDE01AE59BF4FED93FD939D
:101A52006D937C930E94D626A0E0B0E889EF93E4D0
:101A62000E94B22B0E94DF260E94E826E0E0F0E00E
:101A72006AEF73E40E94002CDE01AA59BF4FED9376
:101A8200FD936D937C930E94ED2609F010F40C9463
:101A92005B0DDE01AA59BF4F0D901D908D919C9157
:101AA200D001FE01EE59FF4F0190119061917081BA
:101AB200F00107C00E94ED2610F50E94DF260E9469
:101AC200D6260E945B2BDE01A65ABF4FED93FD93F3
:101AD2006D937C93DE01A65ABF4F0D901D908D91A0
:101AE2009C91D0010E94B22B0E94F2260E94622B8E
:101AF200DE01A659BF4FED93FD936D937C93E8A54C
:101B0200F9A53196E8A7F9A7E0911706E03011F49C
:101B12000C94800EE0E0E0931706A0E00E94CD2630
:101B2200A0E0B0E080EA90E40E94B22BDF01CB019A
:101B3200E0E0F0EC6FE774E40E94002CDF01CB01DF
:101B4200EAE0F7ED63E27CE30E94002CDE01AE5A8C
:101B5200BF4FED93FD936D937C930E94FB26E0E0D3
:101B6200F0E06FE573E40E94452C48F40E940427DC
:101B7200A0E0B0E080E191E40E94622B14C00E94D8
:101B8200FB26E0E0F0E069E673E40E94452C09F0F0
:101B920010F40C94DB0D0E940427A0E0B0E080E872
:101BA20090E40E945B2BDE01AE5ABF4FED93FD9392
:101BB2006D937C930E9404270E940D270E94622B42
:101BC200DE01AE5BBF4FED93FD936D937C93E8A571
:101BD200F9A50E94F2260E941627DE01AA5ABF4FDB
:101BE200ED93FD936D937C93DE01AA5ABF4F0D9046
:101BF2001D908D919C91D0010E94652CDE01A25A0C
:101C0200BF4FED93FD936D937C930E941526DE01E9
:101C1200A25ABF4F0D901D908D919C91D0010E94B0
:101C2200002CDE01A25BBF4FED93FD936D937C937D
:101C32000E942526DE01A25BBF4F0D901D908D9163
:101C42009C91D0010E94452C40F4E0E0DE01A25BB1
:101C5200BF4FED93ED93ED93EC93E0E0DE01A659D7
:101C6200BF4FED93ED93ED93EC93E8A7E9A70E94A4
:101C72001D270E9426270E94622BDE01A25CBF4F15
:101C8200ED93FD936D937C930E941D270E94FB268A
:101C92000E94B22BDE01A65BBF4FED93FD936D93C5
:101CA2007C93AAADBBAD8CAD9DAD0E94622BEAAF19
:101CB200FBAF6CAF7DAFDE01A65BBF4F0D901D90F9
:101CC2008D919C91D001E4EBF2EA61E179E30E940B
:101CD200B22BDE01AA5BBF4FED93FD936D937C9314
:101CE200AEA9BFA988AD99AD0E94622BEEABFFAB46
:101CF20068AF79AFECA1FDA13196ECA3FDA3203032
:101D020059F020E0FE01E457FF4FFA93EA93AEE167
:101D1200B0E080E090E051C1DE01A457BF4F0D90CA
:101D22001D908D919C91D0010E948611309711F4E3
:101D32000C94E00FA0910806A13011F00C94D90F79
:101D4200ECA1FDA10E940D270E941627EAABFBAB76
:101D52006CAB7DABECA1FDA10E9426270E94162749
:101D6200EEA7FFA768AB79ABECA1FDA1AAADBBAD15
:101D72008CAD9DAD0E941627EAA7FBA76CA77DA795
:101D8200EAA9FBA96CA97DA9E0930906F0930A06CA
:101D920060930B0670930C06EEA5FFA568A979A9BE
:101DA200E0930D06F0930E0660930F0670931006F3
:101DB200E9E0F4E00E94D625E4E4F4E0FA93EA9341
:101DC200FE01EC5BFF4F0190119061917081F00177
:101DD2000E941E26E3E5F4E0FA93EA93FE01E05C3A
:101DE200FF4F0190119061917081F0010E941E26B7
:101DF200E2E6F4E0FA93EA93ECADFDAD6EAD7FADB1
:101E02000E941E26E1E7F4E0FA93EA93ECA9FDA909
:101E12006EA97FA90E941E26E1E8F4E0FA93EA93F4
:101E2200E8A9F9A96AA97BA90E941E26E1E9F4E0C2
:101E3200FA93EA93ECA5FDA56EA57FA50E941E2646
:101E4200E0EAF4E0FA93EA93E8ADF9AD6AAD7BAD6E
:101E52000E941E26E8EBF4E0FA93EA93EEA1FFA1BA
:101E62000E942F27EFECF4E00E94D625E1E0E88300
:101E7200E0E1E983EAA9FBA96CA97DA90E943227C6
:101E8200E1E0EE83FE013796A1E1A0830E943727AD
:101E9200E0E0F0E06AE774E40E94B22B0E943C2783
:101EA200E1E0EC87FE013D96A2E1A083EAA5FBA555
:101EB2006CA57DA5EE87FF87688B798BE1E0EA8BC5
:101EC200FE017396A3E1A083EEA9FFA968AD79ADE7
:101ED200EC8BFD8B6E8B7F8B0E944127E4E0EA93B3
:101EE200FE0136960E944A270E94B1180E944D2791
:101EF200A030E0E0BE07E9E38E07E3E49E0769F461
:101F02000E943727EDECFCEC6CE970E40E94452C52
:101F120009F010F40C948E0F01C001C031C00E9470
:101F22004D27A030E0E0BE07E8EC8E07E2E49E0712
:101F320069F40E943727E3E3F3E36FE971E40E9457
:101F4200452C09F010F40C94A70F01C001C018C071
:101F52000E944D27A030E0E0BE07E4E88E07E2E4ED
:101F62009E0769F40E943727E3E3F3E36FEE71E41F
:101F72000E94452C09F010F40C94C00F01C016C049
:101F8200E0E0E0930806E0916500EB7FE0936500F6
:101F92000E94BA26EAE0F5E00E94D6250E94AF260A
:101FA200FE017E960E944A270E9447190E944026FF
:101FB200FE01E457FF4F0E9456270E949D11DE0149
:101FC200A857BF4F0D901D908D919C91D0010E94FA
:101FD2008611309711F40C942B10E0910806DE0163
:101FE200A259BF4FEC93E0E0DE01A159BF4FEC9341
:101FF200DE01A059BF4FEC93DE01AF58BF4FEC9307
:10200200DE01AE58BF4FEC93FE01E259FF4F359609
:10201200FA93EA93E9E0F6E00E945D27FE01E259B5
:10202200FF4F3996FA93EA93EDE0F6E00E945D27BE
:102032000E944127FE01ED58FF4F0E9494260E9404
:102042008A260E945A18FE01E857FF4F0E9456271F
:102052000E949D110E94DD1B0E94F51301C006CB58
:102062009CCCFFCFAA9326971A9310E0163060F407
:102072000E946327DE011196AE0FBF1FE754F94F8E
:10208200E081EC931F5FF2CFE0E0EE83EAE2F5E05D
:10209200FA93EA93FE0133960E942F27EF81F0E034
:1020A200E530A0E0FA0769F40E946627A0E0B0E0FC
:1020B2000E94BB2DE0E7F5E0FA93EA93A0E0B0E0DE
:1020C20021C0E431A0E0FA0769F40E946627A4E087
:1020D200B0E00E94BB2DE2EBF5E0FA93EA93A4E0B4
:1020E200B0E010C0EE31A0E0FA0781F40E9466274A
:1020F200A8E0B0E00E94BB2DE5EFF5E0FA93EA9389
:10210200A8E0B0E00E94A72D0E941E261881289602
:102112000895E0E0E093AE06E8E3F6E00E94D625FB
:102122000E946A27ECE8F0E00E946F2711F4A5E014
:1021320011C00E946A27E6E9F0E00E946F2711F4BD
:10214200A4E108C00E946A27E0EAF0E00E946F273B
:1021520011F4AEE187DF0895FF92F82ED1501A9361
:102162000A93DE01A250BF4F0E949C2C8D01FE01FA
:102172003296FA93EA93DE01AC5FBE4F0E949C2C2A
:102182000E947627D8010E949524E0E0EA93DE01BE
:1021920013960E946513198108812296DF5FFF90D2
:1021A20008950E947B27EA83E0E0EB830E94F42DEE
:1021B2000A851B8520E130E0EC85FD85EE83FF83F7
:1021C200AA85BB850E94E02D6CF52A173B0734F0E7
:1021D2000E9480270E94852729D024C0F801D901B6
:1021E2000E94452DAF010E9480275A934A93AC85E5
:1021F200BD851CD0041B150BFA010E948C27F90126
:10220200A885B985EA0FFB1FE887F98720173107F0
:1022120044F00E9480271A930A93AC85BD8506D0AC
:1022220001C0DCCF0E94FB2D2E960895BA93AA938B
:102232000E94F42DEDE4F6E0FA93EA93E885F9853D
:102242000E9493274A855B8500E010E0E885F985C6
:102252000E171F0794F4E5E5F6E00E9496274F5FFC
:102262005F4FE7E0F0E0E017F10721F4E3E5F6E085
:102272000E94D6250F5F1F4FE9CFA885B985189711
:1022820024F4E3E5F6E00E94D625A885B9855097A7
:102292009CF4A885B985E0E1F0E0EA1BFB0B9F0105
:1022A20000E010E0021713073CF4E1E5F6E00E94BB
:1022B200D6250F5F1F4FF6CFE1E5F6E00E94D62547
:1022C2004A855B8500E010E0E885F9850E171F0757
:1022D200A4F4DA01AC910E94A425E03029F0EBE5E8
:1022E200F6E00E94962704C0EEE5F6E00E94D625AD
:1022F2004F5F5F4F0F5F1F4FE7CFEDE6F5E00E94A4
:10230200D6250E94FB2D2C9608950E94952D0E94A1
:102312009B270E94DC2D19F4EFEFFFEFF9C10E9419
:102322009B270E949E270E94EF2D18F4E0E0F0E028
:10233200EFC1E1E0F0E0ECC10E94952D24970E94EC
:10234200A7270E94DC2D71F4E0E6F6E00E94D62574
:10235200A885B985EFEFFFEF6FEF7FEF0E94722D37
:102362000C941C160E94A7270E949E270E94A02C54
:102372000E94862D0E949B27A885B9850E94722DF6
:102382000E94AC270E94812D0E94EA2DD8F0E3E83A
:10239200F6E0FA93EA930E94AC270E94B5270E94C6
:1023A200B5270E94902D8CE0D7DE2E96A885B985A0
:1023B200E0E0F0E060E070E00E94722DEFEFFFEFEE
:1023C2000C941C16E0E0F0E00C941C16AA93EA931D
:1023D200EFB7EA93E7EDE2BFA0910806A13019F446
:1023E200E1E0E09318063EC06A937A93AA93BA9307
:1023F200EA93FA93EFB7EA93E7E5EDBDE0E4ECBDCB
:10240200A1E1B6E00E946D2DEF5FFF4F6F4F7F4F4E
:102412000E94772DE991EFBFF991E991B991A991C4
:10242200799169911895AA93EA93EFB7EA930E947A
:10243200BC27E0911606E03029F0E0911506EF5F27
:10244200E0931506A0910806A13019F4E1E0E093AB
:102452001706E0911906E03029F09F9B02C0AF9861
:1024620001C0AF9AE991EFBFE991A9911895E0E017
:10247200E0BFE6E0E3BFE7EDE2BFE0E0E1BFEFBDD2
:10248200E4E0EEBDE7E5EDBDE0E4ECBDE0E0E7BD94
:10249200E6BDEBBDEABDE9BDE8BDE0937900E0939E
:1024A2007800E5BDE4BDE3BDE0938B00E4E0E0939A
:1024B2008A000E94BC27E0E0E0938100E093800064
:1024C200E0938700E0938600E0938500E093840028
:1024D200E0938300E0938200EFE1E1BDEFE0E1BD34
:1024E200E0E0E7BFE7BFE0937D000895BA93AA93C7
:1024F200E881F981309721F4E7B7E160E7BF15C0C1
:10250200E130A0E0FA0721F4E7B7E460E7BF0DC0CD
:10251200E230A0E0FA0749F0E330A0E0FA0729F43C
:10252200E0917D00E460E0937D0078942296089526
:102532000E94C3271BB10CB1E12FEC71C1F4A02F93
:1025420017D0043209F4BB24EB2DB394F0E0E1552B
:10255200F94F0083E0E2BE1608F0BB24033239F4DF
:10256200EB2DE150AE2EBB24E1E0E093AE062FC08E
:10257200AA935D9BFECFE881ECB941C00E94C327BC
:1025820010919B0000919C00E12FEC7101F5F2018A
:1025920031962F013197E951F94F0083E0E0F2E0E3
:1025A200E415F50511F444245524F40131964F0144
:1025B200E030A2E0FA0759F4E6ECF6E0FA93EA9387
:1025C200F4010E942F2788249924689420F8099105
:1025D2001991E991EFBFF991E991B991A991999175
:1025E200899179916991F990199009901895AA9316
:1025F200E0919B00E072E1F3E881E0939C00219678
:1026020008950E94D32720E030E000240814090432
:10261200B0F5F30131963F013197E951F94F10813D
:10262200E0E0F2E0E615F70511F466247724E09184
:102632009A00EF77E0939A00F40131974F01E0910D
:102642009A00E068E0939A000E94D8273197FA93A3
:10265200EA93EDB7FEB7FA93EA931F930E94DE273F
:102662000E94BD241F912F5F3F4FEE81FF81E21731
:10267200F30729F0AC81BD810E94B22AC6CFF901CD
:10268200D8C20E94E12700E010E0EA81FB810E1728
:102692001F0750F4F801AC81BD81AE0FBF1FAC9192
:1026A200A6DF0F5F1F4FF1CFF801198108810C944B
:1026B2005C17E7EEF6E0FA93EA93E0E0EA93A0E033
:1026C200B2E00E94EE240895BA93AA931A9310E0FE
:1026D200EB810E94E62761F40E94E927EC91E03049
:1026E20031F00E94E927AC9143DF1F5FF5CF0FC0A5
:1026F200E130A0E0FA0759F40E94E927EC91E030BA
:1027020031F00E94E927AC9172DF1F5FF5CF18818B
:10271200249608950E94952DEC810E94E62771F57A
:10272200E0E0EBB9E8E9EAB9E6E0E0939500E0E041
:10273200E09390000E94EF2711F4EFE11DC00E9488
:10274200F827C9F00E94002811F4EFE215C00E9498
:10275200082811F4E3E210C00E94102811F4E1E10C
:102762000BC00E94182811F4EBE006C00E9420283A
:1027720011F4E5E001C0E7E4E9B934C0E130A0E0DA
:10278200FA0781F5E0E0E0939B00E8E9E0939A0024
:10279200E6E0E0939D00E0E0E09398000E94EF27DE
:1027A20011F4EFE11DC00E94F827C9F00E94002831
:1027B20011F4EFE215C00E94082811F4E3E210C000
:1027C2000E94102811F4E1E10BC00E94182811F4B4
:1027D200EBE006C00E94202811F4E5E001C0E7E426
:1027E200E0939900259608952497E0E0E883E98331
:1027F200EA83EB830E94F42D20E030E040E050E0D9
:10280200A0E0B2E00E94282821F4ECEEF6E00E945B
:10281200D625002E012AA1F31A930A93EFEFF1E0D5
:102822000E944A27EEDE9F0100240216030634F0BE
:10283200D8010E9452210E94FB2DFDC1E4E1F7E084
:102842000E94D625E0E2F7E00E94D6250E942E28BB
:10285200ECE3F7E00E94D625FA010E943328A0E0BB
:10286200B6E00E940B254E0F5F1F2417350709F4AF
:1028720064C0FA013196E00FF11FE0810E9438280E
:10288200E887F987FA013296E00FF11FE081A88507
:10289200B985F0E0EA2BFB2BE887F9870E948C27A9
:1028A200AE81BF812A173B074CF44F5F5F4F4E83C7
:1028B2005F83E8E4F7E00E94D62539C00E943C28F5
:1028C200AA85BB8585D10F01FA013396A885B98502
:1028D200EA0FFB1FE00FF11FE081D001F0E0EA17E1
:1028E200FB0749F0E3E6F7E00E94D6254F5F5F4F12
:1028F2004E835F831CC0EAE7F7E00E94D625E0E240
:10290200F7E00E94D6250E943C28AA85BB850E943A
:10291200D210ECE3F7E00E94D6250E943C28AA855B
:10292200BB8511D0E885F98533964E0F5F1FAE81C6
:10293200BF81A217B3070CF48FCFD8010E94522196
:102942000E94FB2D78C1BA93AA930E94F42DA88508
:10295200B9851C910E946327E838A0E0FA0711F0BC
:102962000C942315AE81BF8115971CF40E943F2859
:1029720062C1EDE8F7E0FA93EA93E8E8F0E060E09C
:1029820070E00E941E260E944428E091DD06F0912C
:10299200DE0609959F01A885B9851296AC91A335EB
:1029A20031F4A885B9851396AC91A83409F01CC0FE
:1029B200E885F985E581E093CF06E885F985E6812A
:1029C200E093D006E885F985E781E093D106E885B2
:1029D200F985E085E093D206E6E9F6E0FA93EA9318
:1029E200EFECF6E00E945D27A885B9851296AC91BE
:1029F200A33531F4A885B9851396AC91AC3409F0AE
:102A020020C0E885F985E581E093D306E885F9855C
:102A1200E681E093D406E885F985E781E093D5065F
:102A2200E885F985E085E093D606EAE9F6E0FA93CF
:102A3200EA93E3EDF6E00E945D27A6E9B6E00E9484
:102A42009E1EC2C0EA38A0E0FA07A1F4AE81BF819F
:102A520012971CF40E943F28EEC0ECE9F7E00E94B6
:102A62004B28A885B985E091DB06F091DC06099533
:102A72009F01AAC0EB38A0E0FA0709F5AE81BF8139
:102A820017971CF40E943F28D6C0E8EAF7E0FA93B1
:102A9200EA93EBE8F0E060E070E00E94902DEE85B2
:102AA200FF85E5810E9452280E945828A885B98591
:102AB200E091D706F091D80609959F0185C0E039CB
:102AC200A0E0FA07A9F4AE81BF811C971CF40E9412
:102AD2003F28B1C00E944428E091D906F091DA065D
:102AE20009959F0133231AF40E943F28A4C06CC0A9
:102AF200E139A0E0FA0719F40E945D289CC0E2398E
:102B0200A0E0FA07A1F4AE81BF811F971CF40E94D6
:102B12003F2891C0ECEBF7E0FA93EA93E2E9F0E0A8
:102B220060E070E00E941E260E945D2884C0E539A4
:102B3200A0E0FA0739F5ECECF7E0FA93EA93E5E95D
:102B4200F0E060E070E00E941E2640E050E0EE817E
:102B5200FF814E175F077CF4ECEDF7E0FA93EA93FE
:102B6200FA01AA85BB85AE0FBF1FEC910E949B267E
:102B72004F5F5F4FECCFE1E1F7E00E94D6250E9464
:102B82005D2859C0E739A0E0FA07A1F4AE81BF8100
:102B92001F971CF40E943F284EC0E2EEF7E0FA9322
:102BA200EA93E7E9F0E060E070E00E941E260E94EE
:102BB2005D2841C0E1EFF7E0FA93EA93E12F0E942A
:102BC2009B260E943F2837C0F9010E94FB2D33C08B
:102BD2000E94D32730E000E010E0EC81FD810E1767
:102BE2001F0754F4F801AE81BF81AE0FBF1FEC91F5
:102BF2003E0F0F5F1F4FF1CFE32FF0E0F070AFEF0A
:102C0200B0E00E94A02DEA1BFB0B0E94FD2D28962E
:102C120008950E94D327EE81FF8134969F01D90146
:102C22000E94282851F4E8E1F8E00E94D625EFEF4F
:102C3200FFEF0E94FD2D2A960895D801EEE7EC934E
:102C4200EE81FF810E94B12CD8011196EC93EE81A6
:102C5200D8011296EC930E9462280E946728AA85E6
:102C6200BB850E94BD24F9013197E00FF11FFF934C
:102C7200EF930E946228A885B985AADFAF91BF9120
:102C8200EC93EFE3F8E00E94D6250E942E28E1E6BD
:102C9200F8E00E94D6250E946C280E9474280C94A9
:102CA200921A0E94D327EC81FD8134969F01D901AB
:102CB2000E94282839F4E1E8F8E00E94D625EFEFD7
:102CC200FFEF36C0AA85A83011F0A93009F40AC076
:102CD200EEEAF8E0FA93EA93EC850E949B26EFEF86
:102CE200FFEF26C0EA85D801EC93F8013196A1E006
:102CF200A083E885F9850E94B12CD8011296EC9345
:102D0200E885D8011396EC93AC81BD810E94E02D39
:102D120044F4F8013496FA93EA930E9444280E94FC
:102D2200BD240E9479280E947E2873DF0E94812898
:102D32000E94FD2D2B960895E3E3F9E00E94D6252B
:102D4200E9E0EA93E8E4F3E50E9487280E947E28FE
:102D5200A8DF0E94D225E9E0EA93ECE4F3E50E94C1
:102D620087280E947E289DDFA4E6B0E019C0E3E533
:102D7200F9E00E94D625E0E0E093A306EFEFE093AE
:102D8200A406E9E0EA93E2E5FEE4FA93EA93E4E0DA
:102D9200F6E0FA93EA930E94DE2783DFA4EFB1E024
:102DA2000E94B22A0895E0E0E093A506E9E0EA93E2
:102DB200E9E4F1E40E9487280E947E2872DF0895E8
:102DC200BA93AA931A93A981BA8111961C910E946F
:102DD2006327309729F4E2E9F9E00E94D6254DC035
:102DE200E130A0E0FA0729F4ECEAF9E00E94D625E6
:102DF20044C0E230A0E0FA0741F4ECECF9E00E94B2
:102E0200D625E1E0E093A30638C0E330A0E0FA075C
:102E120041F4E9EEF9E00E94D625E0E0E093A30652
:102E22002CC0E630A0E0FA0729F4EAE0FAE00E94BA
:102E3200D62523C0E730A0E0FA0729F4E7E2FAE05A
:102E42000E94D6251AC0ED30A0E0FA0729F4EBE47F
:102E5200FAE00E94D62511C0E131A0E0FA0729F478
:102E6200E7E6FAE00E94D62508C0E038A0E0FA07BB
:102E720021F4E6E8FAE00E94D625E0E0F0E01881CD
:102E8200239608950E94D32700E010E0EC81FD8193
:102E9200E2810E9438288F01EC81FD810E948A28FC
:102EA200AC81BD8115963C91323219F4E0E0E09399
:102EB200A3060E947428269608950E948F2800E097
:102EC20010E0EA85FB85E2810E9438288F01EA85BD
:102ED200FB850E948A28AA85BB8514963C91E32F24
:102EE2000E94E62701F0303019F0EFEFFFEF17C034
:102EF200E885F9853597AF011A930A93EC85FD852C
:102F02003596FA93EA93DA010ED0EE83FF83AF810E
:102F1200AA231AF4EFEFFFEF02C0E0E0F0E00E9414
:102F2200FB2D2C960895BA93AA931A93ED81FE81F4
:102F3200E934A1E4FA0749F5E1E0E093A506A981A5
:102F4200BA81119739F0E3EAFAE00E94D625EFEF51
:102F5200FFEF46C0AB81BC81EC91E093A406E03068
:102F620041F4E1E0E093A306E9ECFAE00E94D62501
:102F72000BC0E0E0E093A306ECEDFAE0FA93EA93EB
:102F8200E091A4060E949B2629C0E834A3E5FA0733
:102F920029F4E6EAF6E00E94952820C0EC34A3E585
:102FA200FA07E1F4EAEAF6E00E949528EAE0FBE09B
:102FB2000E94D62510E0183068F4EFE1FBE0FA93A6
:102FC200EA930E946327EA55F94FE0810E949B260B
:102FD2001F5FF1CFE9EAF9E00E94D625E0E0F0E0D8
:102FE20018812796089546D0E0E00E949A28E1E0F1
:102FF2000E949A280E9438120E947E280E9477120C
:103002000E94DE270E947712A3E0B0E00E947712AE
:103012000E94612AA0E40E947B1EE3E4F7E1E093B0
:10302200D706F093D806E1EEF6E1E093DB06F093E3
:10303200DC06EEE5F7E1E093DD06F093DE06E4E977
:10304200FAE1E093D906F093DA06E3EDFDE1E093CD
:103052008806F0938906EBE4FDE1E0938C06F09399
:103062008D06E7E9FDE1E0938A06F0938B06E0E046
:10307200F0E00895A098A89AD798D698D598D498B1
:10308200A79AE0916400E460E0936400129AE091F0
:103092006400E860E0936400AF9AE0916500EB7F22
:1030A200E09365001A9AE0916500E77FE09365007E
:1030B2000895BA93AA9324970E94F42DEC85FD8576
:1030C2003F960E94A12839F4E6E2FBE00E94A7287D
:1030D200EFEFFFEF41C00E94AB28FF93EF930E94F6
:1030E200361DAF91BF91EC930E94AB28AAE20E94D9
:1030F200B428FE0173960E945D270E94B828A88515
:10310200B98518973CF40E94AB280E94C1280E94FE
:10311200D827F5CF0E94AB28A8890E94B428E88955
:10312200F989FA93EA93A889B9890E94BD24EC85AA
:10313200FD850E948C27E8E6FBE0FA93EA93EA8990
:103142000E949B260E94C9280E94D4281AF40E9439
:10315200E12802C00E9481280E94FB2D65960895F5
:10316200BA93AA9324970E94F42DEE85A6E0EA9FD3
:10317200F00170960E94A12839F4E9E9FBE00E946F
:10318200A728EFEFFFEFECC0AF85A03031F0A13000
:1031920021F0A03211F0A13209F40AC0E1EEFBE005
:1031A200FA93EA93E9890E949B260E94E128D8C0FB
:1031B2000E94AB28FF93EF930E94361DAF91BF91FF
:1031C200EC930E94AB28AAE50E94B428FE017296F5
:1031D2000E945D270E94B828A885B98518973CF4FB
:1031E2000E94AB280E94C1280E94D827F5CF0E94D6
:1031F200AB28AF85A0830E94AB28AE85A083E0E018
:10320200E887E987EE85A885B985F0E0AE17BF07A4
:1032120084F50E94AB28FF93EF930E94E728AE0F3C
:10322200BF1FEC91AF91BF91EC930E94AB28FF932B
:10323200EF930E94E728AE0FBF1F1196EC91AF915A
:10324200BF91EC930E94F128EA85FB856E857F850C
:10325200A6E0B0E00E94C62CE60FF71F32960E944D
:103262005D27EE81FF813496EE83FF830E94D8278B
:10327200C9CFE0E2FCE00E94D6250E94C9280E9444
:10328200D4281AF40E94E1286BC065C00E947B27F3
:10329200E883E0E0E9830E94F42D24E130E0D901E3
:1032A2000E94282839F4E8E4FCE00E94A728EFEF06
:1032B200FFEF56C0AF85A03031F0A13021F0A0322F
:1032C20011F0A13209F40AC0E9E8FCE0FA93EA93AA
:1032D200E9890E949B260E94E12842C00E94AB28F5
:1032E200FF93EF930E94361DAF91BF91EC930E9422
:1032F200AB28AAE30E94B428FE0172960E945D27C1
:103302000E94B828A885B98518973CF40E94AB287A
:103312000E94C1280E94D827F5CF0E94AB28AF8512
:10332200A0830E94AB28AE850E94B428EE85FF855B
:103332000E945D27EE81FF813496EE83FF83E9ECE4
:10334200FCE00E94D6250E94C9280E94D4281AF4C3
:103352000E94E12805C0D8010E945221E0E0F0E07D
:103362000E94FB2D649608950E948F28EA85FB85B2
:1033720033969F0140E050E0D9010E94282839F499
:10338200E2EFFCE00E94A728EFEFFFEF4AC0AE8514
:10339200A13121F4E0E0E0939E0606C0AE85A033A1
:1033A20019F4E0E0E093A0060E94F428AFEFA083B6
:1033B2000E94F428AAE7A0830E94F428AE85A08385
:1033C200AA85BB850E94E02D7CF4FA010E94332875
:1033D200EE85FF85FA93EA93AE85BF850E94BD24F0
:1033E200EA85FB854E0F5F1FEAE3FDE0FA93EA935D
:1033F200E8890E949B26E3E7FDE0FA93EA93EA85D7
:10340200FB850E9493270E94FA280E94FF28EE83E0
:10341200FF83AF81AA231AF40E94E12802C00E940E
:1034220081280E94FB2D2F9608950E948F2824E068
:1034320030E0E0E0EE83EF83D9010E94282839F4DE
:10344200E9E2FEE00E94A728EFEFFFEF20C00E9412
:10345200AB28AC85A0830E94AB28ABE8A0830E9476
:10346200AB28AB85A0830E94AB28AA85A083E2E7A4
:10347200FEE00E94D6250E94FA280E94FF28AF0192
:1034820055231AF40E94E12802C00E9481280E945A
:10349200FB2D2D960895AA932297E0E0E883E98315
:1034A2000E94F42D43E050E0DA010E94282851F4F2
:1034B200E3EAFEE0FA93EA93FA010E949327EFEF20
:1034C200FFEF2DC00E94AB28A985A0830E94AB28E4
:1034D200ABEEA0830E94AB28A885A083EEEEFEE0AF
:1034E2000E94D6251A930A93A885B9850E94D21004
:1034F200EEE8F6E0FA93EA931A930A935A934A9300
:103502000E947E28E0918806F091890609953E2F57
:1035120030301CF4EFEFFFEF02C0E0E0F0E00E9479
:10352200FB2D2A960895BA93AA936B970E94F42DC5
:1035320000E010E0FE0178960E940A2931960E946E
:103542000F29EBA1FCA1E1850E9438288F01EBA194
:10355200FCA1E285F0E00E2B1F2BFE0170960E946B
:103562000A293D960E940F29FE0138960E940A29D7
:1035720075960E940F29ABA1BCA15D964C91ABA19F
:10358200BCA15E965C91E9A1FAA131973897329776
:1035920031979F01E52FF0E0EA31A0E0FA0791F4BC
:1035A2002E31E0E03E0718F40E94152901C1E1E244
:1035B200FFE0FA93EA93EAE1F0E060E070E00E9453
:1035C2001E26F4C0EA37A0E0FA0791F42431E0E0C5
:1035D2003E0718F40E941529EBC0E1E4FFE0FA93DC
:1035E200EA93EAE7F0E060E070E00E941E26DEC0A7
:1035F200EA38A0E0FA0771F52032E0E03E0718F45D
:103602000E941529D5C0E6E6FFE00E944B28EBA1F7
:10361200FCA1E7A1EE830E941C29E0918C06F091A7
:103622008D060995EF83AF81A0305CF44A93EF8158
:10363200EA93E1E0EA930E947E28F7DEEFEFFFEFE4
:10364200B7C04A93EF81EA93E0E0EA930E947E28B2
:10365200ECDEACC0EB32A0E0FA07A1F42731E0E0E7
:103662003E0718F40E941529A3C0EDE8FFE0FA9383
:10367200EA93EBE2F0E060E070E00E941E26A42FE5
:1036820073D194C0EB33A0E0FA07A1F42331E0E058
:103692003E0718F40E9415298BC0ECEAFFE0FA936A
:1036A200EA93EBE3F0E060E070E00E941E26A42FB4
:1036B2005BD17CC0EB35A0E0FA07A1F42331E0E056
:1036C2003E0718F40E94152973C0EAECFFE0FA9352
:1036D200EA93EBE5F0E060E070E00E941E26A42F82
:1036E20043D164C0EB37A0E0FA07C9F52531E0E029
:1036F2003E0718F40E9415295BC0E7EEFFE0FA933B
:10370200EA93EBE7F0E060E070E00E941E26ABA1D6
:10371200BCA15F96AC91A13131F0ABA1BCA15F9687
:10372200AC91A03369F4EBA1FCA1E0A1E03041F43B
:10373200EEE8F6E0FA93EA93FE0172960E940F29F0
:103742000E941C29E0918A06F0918B060995EF836D
:10375200AF81A0301CF4EFEFFFEF2AC027C0EB3E91
:10376200A0E0FA07B1F42431E0E03E0718F40E9429
:1037720015291EC0ECE0F0E1FA93EA93E42F0E94CF
:103782005228E9A5FAA5E78D0E9452280E945828DE
:103792000DC0E6E5F0E1FA93EA93E52F0E949B263D
:1037A2004A93A0E278DEEFEFFFEF02C0E0E0F0E044
:1037B2000E94FB2DA59608951A9310E01A3010F07E
:1037C2000C94311C0E942329DF010E94672DDF0126
:1037D200CB010E948611309729F00E942929A081ED
:1037E200A03009F43BC00E942F29A081A13070F0C3
:1037F200EAE9F0E1FA93EA930E942929E0810E9422
:103802009B260E942929A081AFD028C00E942F297F
:10381200DF01EC91EF5FEC93ABE01A9FF001DF0167
:10382200E55EF94FFA93EA93A15EB94F0E943529FA
:10383200EEEDF0E1FA93EA930E942929E0810E94D9
:1038420052280E942F29E0810E9452280E94582863
:103852000E943D290E9444290E9442131F5FAECF5D
:10386200E0E0F0E015C10E94E127DAD00E2F112727
:1038720011234AF4EFE1F1E10E94D625EFEFFFEFC9
:103882001981088151C10E944A29FF93EF93AC81AB
:10389200BD810E943721AF91BF91ED93FC930E94AD
:1038A2004A29DF010E94632D309769F4E2E5F1E1D4
:1038B200FA93EA93EE81FF810E949327EFEFFFEFE5
:1038C2001981088131C10E944A29DF010E947627AD
:1038D2000E9444280E94BD240E945229EF5DF94FA4
:1038E200AC81A0830E945229EE5DF94FA885A08386
:1038F2000E945229E65EF94FA0E0A0830E9452295D
:10390200E15EF94FAA81BB81A083B1830E94522953
:10391200E55EF94FFA93EA930E945229E15EF94F6C
:10392200DF010E943529D394E7E8F1E1FA93EA93A3
:10393200EA850E945228F8010E94BC2C0E94902D18
:103942000E9458280E944A29DF010E9476270E947D
:103952005229EF5DF94FA081B0E00E94D210ED2D07
:10396200F0E019810881E0C0AA931A9310E01A309E
:1039720090F50E942929E081A981EA1751F50E9458
:103982003D290E9444290E94D2100E9458290E9477
:103992005E290E9465290E946A29A0E0A0830E94F4
:1039A2002F290E9472290E9423290E947A29DA94DF
:1039B200E0EDF1E1FA93EA93EB810E945228E12FC4
:1039C2000E9452280E945828ED2DF0E018810C9494
:1039D2005B211F5FCCCFE8E1F2E1FA93EA93EB813E
:1039E2000E949B26EFEFFFEF18810C945B211A9344
:1039F20010E01A30A0F40E9458290E945E290E9409
:103A020065290E946A29A0E0A0830E942F290E94B2
:103A120072290E9423290E947A291F5FEACF38C0A7
:103A22001A9310E01A3050F4ABE01A9FF001EF5DE8
:103A3200F94FE081E03059F11F5FF4CFEFEF28C07A
:103A4200AA931A9310E01A3060F40E942929E081A7
:103A5200A981EA1721F4E1E018810C945B211F5F30
:103A6200F2CFE0E018810C945B211A930E94772038
:103A7200DF01E0E0F1E00E94452D1E2FA12FE0DFE3
:103A8200E03021F4103011F01F3F09F4EFCFE12FA5
:103A920019910895BA93AA9324971A93AF81B8857E
:103AA2001A961C91FE013196FA93EA93E985FA85FA
:103AB2003B960E945D27E12FE07FE03299F5E0E638
:103AC200F2E10E94D625A981A13059F40E942E2646
:103AD200AF98ACE0B0E0E1E00E94CB2DEEE7F2E17E
:103AE2001DC0E981E030F1F40E943726AF9AACE0C4
:103AF200B0E0E0E00E94CB2DE0930906E0930A06D5
:103B0200E0930B06E0930C06E0930D06E0930E069D
:103B1200E0930F06E0931006E4E8F2E1FA93EA93E9
:103B22000E941026E0E01881299608950E94E1275C
:103B3200AC81BD8112961C91AC81BD8113960C9112
:103B42000E946327E131A0E0FA0769F4EBE8F2E1B1
:103B5200FA93EA93E02F0E949B26E1E0E0939E060F
:103B620000939F061AC0E033A0E0FA0769F4EDEA79
:103B7200F2E1FA93EA93E02F0E949B26E1E0E093C0
:103B8200A0060093A10609C0E2EDF2E1FA93EA93DE
:103B9200E12F0E949B26EFEF01C0E0E0198108812E
:103BA20026960895BA93AA932E978EE0A0E0B0E0ED
:103BB200E2E5F2E10E94022E0E94F42DEE89FF89D5
:103BC200B3969F01F90134974E2FA88DB98D5C9160
:103BD200D9010E94282831F4EDE0F3E10E94D625B4
:103BE200EFEF84C00E94AB28AEE7A0830E94AB280F
:103BF200DF01E42FF0E0EF2FF0E0EC930E94AB281E
:103C0200DF01E42FEC930E94AB28A0E1A0830E9485
:103C1200AB2850830E94F128FE013E960E940F2994
:103C22000E948129FE013C96FA93EA93A2E0B0E059
:103C32000E94BD24EE81FF813296EE83FF830E94B3
:103C4200AB28A0E0A0830E94AB28A0E0A0830E9442
:103C5200AB28A0E3A083EE81FF81E00FF11F0E9459
:103C62005D260E948129EC8DFD8D0E940F290E9404
:103C72008129EA8DFB8DFA93EA93AA8DBB8D0E946E
:103C8200BD24EE89FF890E948C27EE81FF81E00F1F
:103C9200F11FFF93EF930E946228D90113970E94AC
:103CA200E915AF91BF91EC93AC89BD890E94E02DDB
:103CB20084F45A930E947928A98DBA8DD4DDE887BD
:103CC200F987A985AA232AF4D8010E945221EFEF8D
:103CD2000DC0E6E3F3E10E94D6250E942E28E2E41D
:103CE200F3E10E94D6250E946C28E0E00E94FB2DA1
:103CF2006C960895AA93C880EC2DE7B9E4EAE6B978
:103D020021960895AA931A930A9300E010E0EA819B
:103D1200EC29E7B988EB8A95F1F7379A369A349B02
:103D2200FECF04B11127E5B1FE2FE0E00E2B1F2BD1
:103D3200349AF801198108811FC0BA93AA931A9381
:103D420010E0EDE7F3E10E94D62510E0183070F4A0
:103D5200E1E9F3E1FA93EA93AB81BC81EE27A10F8B
:103D6200BE1FEC910E949B261F5FF0CFEAE7F3E1B2
:103D72000E94D625E0E01881239608950E947B27B1
:103D8200E883E0E0E983EA83EFE3EB831A930A93A3
:103D9200EB85FC85EF3FAFEFFA0739F40E948027ED
:103DA200AAE9B3E10E94FE24A7C0EF3FAFE7FA07FA
:103DB20039F40E948027ABE9B3E10E94FE249CC043
:103DC200AC85AA2362F4E985FA856B857C850E941D
:103DD200BC2A0E9487290E948C29EDE2EC93A885D7
:103DE200A73010F0E6E0E8871885E12F1150E030A7
:103DF20039F00E9493290E9498290E943227F5CF18
:103E02000E949F290E94622B0E94872910E00E9433
:103E1200A8290E9432270E949F290E94452C88F0DF
:103E22000E9493290E94AD290E9432271F5F1732F8
:103E320038F00E948027AFE9B3E10E94FE245CC003
:103E4200EACF103029F40E948C29E0E3EC9329C0D8
:103E5200E12F1150E03029F10E9493290E94982904
:103E62000E94B4290E94E8260E9484250E943227DB
:103E72000E949F290E94002C0E94EF2A0E2F0E946E
:103E82008C29E02FE05DEC930E945A260E94932930
:103E92000E94B9290E94B22B0E94BE290E94C32906
:103EA200D7CFE885E03021F10E948C29EEE2EC9335
:103EB200E885E150E887EF5FD9F00E94BE290E94B1
:103EC200AD290E948729E985FA856B857C850E9448
:103ED200EF2A0E2F0E948C29E02FE05DEC930E94C6
:103EE2005A260E94BE290E94B9290E94C329E0CF06
:103EF200AE81BF81E0E0EC93198108812D9608958F
:103F0200BA93AA932A970E94F42DE0E0E887E98702
:103F1200EA87EB87A889B989EC915E2FAE2F0E94C0
:103F2200AD25E03031F0E889F9893196E88BF98BDB
:103F3200F1CFE0E0EF835B3221F05D3239F4E1E072
:103F4200EF83E889F9893196E88BF98BE0E04E2F0F
:103F52005E2F08891989A889B989AC910E949B258D
:103F6200E03049F4A889B989AC91EEE20E94C12CF3
:103F72005E2FE03039F0452BE889F9893196E88BDC
:103F8200F98BE9CF28893989403001F1E889F9892B
:103F92003197E88BF98BA889B989AC91AE32B1F02F
:103FA2000E94C8290E94CE290E94B9290E94E826AF
:103FB200E0E0F0E060E271E40E94002C0E943C2705
:103FC200E889F9893197E88BF98BE5CF0E94D329EB
:103FD200A889B9891197A88BB98BA017B10798F056
:103FE2000E94C8290E94D9290E94B9290E94B22B95
:103FF2000E94CE290E94622B0E943C270E94DE2949
:104002000E94E029E5CFD9012F5F3F4F5C915536E1
:1040120019F0553409F057C0E0E04E2FEE83D90174
:104022005C915B3221F05D3221F4E1E0EE832F5F9F
:104032003F4FD9012F5F3F4FEC915E2FAE2F0E9471
:104042009B25E03039F0AAE04A02F001E50FE05387
:104052004E2FEFCF473268F0EF81E03029F0EFEFDB
:10406200FFEF6FE77FEF3EC0EFEFFFEF6FE77FE716
:1040720039C050E20E94D329503089F00E94E529CC
:104082000E94D9290E94B22B0E94E029E42FE52345
:1040920021F00E94DE290E94E0295695EDCFEE81A3
:1040A200E03039F00E94E5290E94CE290E94002CBE
:1040B20006C00E94E5290E94CE290E94B22BE88701
:1040C200F9876A877B87EF81E03041F0E885F985DF
:1040D2006A857B850E94BC2A0E943C27E885F98577
:1040E2006A857B850E94FB2D62960895E091E70820
:1040F200F091E8086091E9087091EA08ADE6BEE443
:1041020086EC91E40E94CE2CEE59F8486F4F7F4F17
:10411200E093E708F093E8086093E9087093EA08EF
:10412200FB01FF7708950E948F2800E01DE0D8016F
:10413200E0E0F0E0ED93FC93002E012A99F1D80122
:104142000E94632DE00FF11F3496AF0112960E9478
:10415200632D9F01309719F02E833F8304C0E0E066
:10416200F1E1EE83FF83AE81BF81A41BB50BE8852D
:10417200F9853496AE17BF0798F0FA01D801129666
:10418200ED93FC93F901DA011296ED93FC93E88525
:10419200F985DA01ED93FC934C5F5F4FFA0104C09D
:1041A2008901CACFE0E0F0E00E94FB2D2A96089533
:1041B2000E94D32700E01DE0002E012A91F0D801D1
:1041C20012960E94632D9F01DF01EC81FD81EA17A7
:1041D200FB0729F4F8010E94FD2D0C94EC248901BF
:1041E200EBCF0E9474280C94EC240E948F28EA855D
:1041F200FB853097A9F134978F01D801D9DF9F0150
:10420200309771F1D80112960E94632DD90112964E
:10421200ED93FC93E885F985309711F1A885B9856E
:1042220082DFAF013097B9F0D8010E94632DEE838F
:10423200FF83DF01E885F985AE17BF0720F4EE8121
:10424200FF81E887F9875A934A930E9485270E9443
:10425200CF24FA0107C0F801D9011296ED93FC931D
:10426200E0E0F0E00E94FB2D2C9608950E94E127E9
:1042720000E010E0EA81FB81309771F0AA81BB81F6
:1042820052DF8F01309741F01A930A93E0E0EA93EC
:10429200AD81BE810E94EE24F801198108810C943F
:1042A2009925BA93AA93E881F981FA93EA930E9435
:1042B2007E289BDF229608950E94E127AA81BB8176
:1042C20012960E94632D309729F1AA81BB81149620
:1042D2000E94632D8F01309761F00230E0E01E07EB
:1042E200C0F0F80131978F01AA81BB811496ED933A
:1042F200FC93AA81BB8112960E94EA293197AC8174
:10430200A083AA81BB810E94632DFF2312F00E9429
:10431200EA2906C0AA81BB81EFEFFFEFED93FC9380
:10432200198108810C94FC240E947B27E883E0E039
:10433200E983E0E8EA83EFE3EB830E94F62DEE8562
:10434200FF85EF3FAFEFFA0749F4E885F985FA9365
:10435200EA93A4EAB3E10E94FE24C6C0EF3FAFE7AE
:10436200FA0749F4E885F985FA93EA93A5EAB3E1F5
:104372000E94FE24B9C0AB85A73010F0E6E0EB87BF
:104382001B85E12F1150E03029F00E94F0290E9494
:10439200F529F7CF0E94E5290E94DC2D31F430E0A7
:1043A2000E94F0290E94F52936C03B850E94FA2915
:1043B20009F010F40C94ED210E94F0290E94F529D5
:1043C2000E94FA2940F00E94D9290E9498290E944D
:1043D200E0293F5FF5CF0DC00E94FA2930F40E9418
:1043E200DE290E94E0293150F7CF0E94F0290E9475
:1043F200F5290E94E5290E94B4290E94622B0E949D
:10440200E0290E94FA2938F00E94D9290E949829AD
:104412000E94E0293F5F10E0EB85E117C8F1AC8113
:10442200BD818E819F810E9498290E94B4290E9499
:10443200E8260E9484250E94F5290E94A7270E944F
:10444200D9290E94002C0E94EF2A0E2F0E94FF29D8
:10445200E02FE05DEC93E02FFF27662777270E948D
:10446200282BAC81BD818E819F810E94B22B0E943C
:10447200D9290E949A2D0E945B2B0E94E029E12FEC
:104482001F5FE03049F60E94FF29EEE2EC93C4CFB1
:104492000E94D8273197AA85A08330302CF4319519
:1044A200A885B985EDE203C0A885B985EBE2EC9356
:1044B2000E94D8270E94D8273197BF01A32FEAE094
:1044C2000E94FC2CE05DDB01EC930E94D82731971F
:1044D200BF01A32FEAE00E94392DE05DDB01EC93DE
:1044E200A885B985E0E0EC930E94FD2D60960895C1
:1044F200BA93AA93EF9761970E94F42D10E0FE0100
:10450200E85AFF4F0190F081E02DE887F987FE011C
:10451200EA5AFF4F0190F081E02DEE83FF83AE81D6
:10452200BF81E0E0F0E0ED93FC93DE01A45ABF4FBF
:104532000E94EA293197E4912E2FE03011F40C9475
:104542008C24E12FE03039F4253211F411E002C05D
:104552000E94062ADFC1E130C1F4253219F40E941B
:10456200062AD7C112E0E0E0ED8B00E02D3211F413
:1045720001E0D0C12B3219F4EBE2ED8BCBC120323A
:1045820019F4E0E2ED8BC6C102C0E23039F450E02A
:1045920013E0203311F40068BDC102C0E33091F48E
:1045A200203310F02A3308F007C0AAE05A9F502D9A
:1045B200E22FE0535E0FAEC140E02E3211F414E060
:1045C200A9C10FC0E43099F4203310F02A3308F067
:1045D20008C00062AAE04A9F402DE22FE0534E0F2E
:1045E20099C12C3619F4026015E094C104C0E5307B
:1045F20011F00C948B24E22FE33659F40E940D2A19
:104602000E94142A0E940D2AA481AA930E941B2AA6
:1046120080C1E53411F0E53609F404C0E63611F044
:104622000C945923FE017696EE87FF870E94212A79
:104632000E94672D0E94282A0E942D2AAD85AA2356
:1046420022F0AD89AB3249F017C00E942F2A0E9496
:10465200BC2A0E94282AEDE2ED8B07FF05C0ED89F6
:10466200EA930E941B2A08C0EE85FF853196EE87E9
:10467200FF873197AD89A08305FF46E0263651F4C6
:104682000E942F2A0E94902D4A93AB89BC890E94D6
:10469200BF1E09C00E942F2A0E94902D4A932A937E
:1046A200AC89BD8941DEFE0176960E94342A1EC085
:1046B200E33739F40E942D2A0E943C2A0E94342AB0
:1046C2000EC0E037C1F40E942D2A0E943C2AEE87D8
:1046D200FF87AE85BF850E942D251E2F08600F77AC
:1046E200403011F0411708F001C0142F40E0E0E023
:1046F200EC8B30E06EC0E43611F0E93611F4046060
:1047020002C0E537A1F4EAE0EC8B01FF08C0E0E06B
:10471200FAEC6AE97BE30E94412A1AE023C0E0E155
:10472200F7E260E070E00E94412A15E01BC0E83524
:1047320011F4086004C0E83711F00C948A24E0E117
:10474200EC8B01FF08C0E0E0F0E060E070E10E9465
:10475200412A18E007C0E0E0F0E160E070E00E946A
:10476200412A14E0403011F00F7701C041E001FF0F
:1047720008C00E942D2A0E94212A14960E94672DA9
:104782000FC002FF07C00E942D2A0E943C2A0E94ED
:10479200BC2C06C00E942D2A0E943C2A662777273D
:1047A200EA87FB876C877D8702FF12C0AD85AA234B
:1047B20042F40E942F2A0E94A92C0E94282AEDE28C
:1047C200ED8BED89E03019F01F5F4F5F01C00B7F69
:1047D200342F00FD14C0151710F4351708F00FC060
:1047E20007FF08C002FF04C00B7F2D89115001C0D2
:1047F20020E301C020E20E94062A5150ECCF141798
:1048020090F4006102FF06C00E94462A09F051504E
:1048120011504150E0E3EA930E941B2A503009F004
:1048220051504150ECCF312FEC89E030B9F43030A7
:10483200A1F003FF06C0EE85FF852591EE87FF8775
:1048420005C0AE85BF852D91AE87BF870E94062A1F
:10485200503009F051503150EACF51C00E94582ACD
:104862000E94142D2E2F2A3030F003FF02C0295C43
:1048720001C0295A01C0205D04FD21C0213360F42A
:10488200A889B9898A899B89A130E0E0BE07E0E066
:104892008E07E0E09E0709F40BC0431740F453175C
:1048A20010F000FF01C010C020E207FF08C020E3A3
:1048B200006102FF04C00E94462A09F051500E9482
:1048C200062A503009F0515031500E94582A0E9455
:1048D200532D0E94282AEC89A889B9898A899B8943
:1048E200FF27662777270E94142D0E94412AE88914
:1048F200F9896A897B890E94DC2D09F0AFCF00FF1C
:1049020008C0503031F05150E0E2EA930E941B2A75
:10491200F8CF10E00ACEAE81BF810E94632D0E94C3
:10492200FB2DEF966F960895BA93AA9326971A9342
:104932000A93EC85FD85309719F4EFEFFFEF18C06D
:10494200EC85FD85EC83FD83E0E0EE83EF830E943E
:1049520067280E946728EDE5F1E2FA93EA93DE0107
:104962001896C6DD8F01AC81BD81E0E0EC93F801C1
:10497200198108812E960895BA93AA939981888104
:10498200009641F0BD81AC81FB81EA8161916D931A
:104992000197E1F7FD81EC810C94EC24BA93AA9380
:1049A200998188810096A9F0BD81AC81FB81EA8161
:1049B200EA17FB0771F02CF061916D930197E1F713
:1049C20008C0A80FB91FE80FF91F62916E930197F3
:1049D200E1F7FD81EC8126960895BA93AA93B981F5
:1049E200A881109631F0FC81EB816A816193119765
:1049F200E9F7EB81FC8125960895BA93AA93E99190
:104A0200F991A991B991CD0105900D920020E1F79C
:104A1200FC010895BA93AA93BB81AA81882799279A
:104A22006D91662351F0F981E8817191772319F034
:104A3200671719F0FACF0196F3CFFC010C94992570
:104A4200BA93AA93A991B991EE27FF276D91662394
:104A520011F03196FBCF0895BA93AA93AA27BB27E8
:104A6200E991F9910590002011F01196FBCFFD011B
:104A72000895AA93002411246991E991F991A991C9
:104A8200B991662349F06A951D900590011421F4AD
:104A92000020B9F7EE2708951018E1F3E1E008F4D9
:104AA200E25008950E94952D7B816A81F981E88107
:104AB20077FB770F67FD7160972F9E5781F078F033
:104AC200983190F4AA27BB27882708948795B79531
:104AD200A7959A95D1F7EA23FB23682305C0E894AA
:104AE2007727EE27FF2766276F77769508F46068A9
:104AF20077F9A991B99189919991EA17FB0768070A
:104B0200790797FB08950E94952D0E94812D0E949E
:104B120053250E94862D19F40E949B2709C0E6F7AF
:104B22000E949B27A0E0B0E080E89FE30E945B2BFD
:104B320024960895AA93E1E0F991F03310F0FA3344
:104B420008F0EE270895AA93E1E0F991F03210F00F
:104B5200F03808F0EE270895AA93E1E0F991F032D7
:104B620029F0F93010F0FE3008F0EE270895E0E069
:104B7200CF99E1E00E2EA0E0CE99A1E0EA2FEE0F50
:104B82000E2AA0E0CD99A1E0EA2FEE0FEE0F0E2A39
:104B9200A0E0CC99A1E0EA2FEE0FEE0FEE0FE02994
:104BA2000895A4E6B0E00C94B22AFA93EA9380E066
:104BB2000E94AD1022960895E0E0F0E069E373E40C
:104BC200E093DF06F093E0066093E1067093E2065D
:104BD200A0E0B0E00E94A72D0895DF01CB010E9462
:104BE200E42D0895DE01AD57BF4FEC930895E09395
:104BF200DF06F093E0066093E1067093E206089503
:104C0200EBE7F1E0FA93EA93E0E0F0E060E87FE3BB
:104C12000E94902D84E00E94AD102696089580E0B7
:104C22000E94AD1022960895E091DF06F091E00611
:104C32006091E1067091E20608950E94902D84E051
:104C42000E94AD1026960895E091E306F091E406E5
:104C52006091E5067091E6060895E1E0E0930806AA
:104C6200E0916500E460E09365000895E0E0E09380
:104C72000806E0916500EB7FE09365000895E0E0AF
:104C8200ECA3EDA3DE01AE5BBF4FED93ED93ED938D
:104C9200EC93DE01A25CBF4FED93ED93ED93EC93A9
:104CA200EAAFEBAFECAFEDAFEEABEFABE8AFE9AF36
:104CB2000895E02FF0E00895FA93EA93E6E9F6E02A
:104CC200FA93EA93A8E0B0E00C94BD24E0E0E0930C
:104CD2009E06EFEFE0939F060895ECE7F3E0FA9368
:104CE200EA93E32FFF2766277727A7CFE0E0F0E0DC
:104CF200FA93EA930895A0E0B0E00C94B519FA9300
:104D0200EA93AAE0B0E080E090E00E949D113F5F4C
:104D12000895A5E0B0E00895E0E0E093A006EFEF8B
:104D2200E093A1060895FA93EA93EDE0F0E0FA9396
:104D3200EA930895FF27662777277FCFACE0B0E09C
:104D4200E1E00E94CB2DE2E2F3E00895ACE0B0E0B6
:104D5200E0E00E94CB2DEFE2F3E00895E8A1F9A193
:104D62006AA17BA10E94902DE0E2EA93E0EAEA9335
:104D72000895AF9AE0E0E0930906E0930A06E09313
:104D82000B06E0930C06E0930D06E0930E06E0930B
:104D92000F06E093100608950E94831EEEA3FFA360
:104DA200662777270E94282B0895FE01EA59FF4FB4
:104DB2000190119061917081F0010895DE01AE5968
:104DC200BF4F0D901D908D919C91D00108950E942E
:104DD200622BDF01CB010895E8DFF0DF0E94452C52
:104DE2000895DE01A659BF4F0D901D908D919C91A3
:104DF200D0010895DE01AE5ABF4F0D901D908D91E6
:104E02009C91D0010895FE01EE5AFF4F019011903E
:104E120061917081F0010895DE01AE5BBF4F0D908C
:104E22001D908D919C91D0010895662777270E944D
:104E3200282B0E94002C0895FE01E25BFF4F019097
:104E4200119061917081F0010895DE01A25CBF4F63
:104E52000D901D908D919C91D00108956627772722
:104E6200ECCEEA83FB836C837D830895AEA5BFA558
:104E720088A999A90895E887F9876A877B870895A1
:104E8200E8A1F9A16AA17BA10E94902DE0E2EA9338
:104E92000895FA93EA933DCFA091DF06B091E00620
:104EA2008091E1069091E2060895FA93EA93ACE3C9
:104EB200B0E080E090E00895FA93EA93A4E0B0E0D5
:104EC2000C94BD24E12FF0E00895DE0111960C94BC
:104ED200811FEFEAF6E0FA93EA930895FA93EA93D0
:104EE200A9E00E943A25E03008950E94632DFA93CA
:104EF200EA930895BA93AA932497E0E00895EE8185
:104F0200FF81FA93EA930895EC85FD85FA93EA937B
:104F1200AC85BD850895AE81BF81EA0FFB1FEE838C
:104F2200FF8308950E94BC2C88CEFA93EA93DA019B
:104F3200EC9100CF0E947C2D0895A0911106B091B2
:104F4200120680911306909114060895EC81FD815A
:104F52006E817F810895E0911106F09112066091B1
:104F620013067091140608950E94902DEA85FB8520
:104F72006C857D850895EBEAE0938900E0EAE09391
:104F8200880008950A921A92FA926A937A938A93FF
:104F92009A93AA93BA93EA93FA93EFB7EA931A937E
:104FA2000A930895BA93AA930E94F62D0895E8856C
:104FB200F9853196E887F9870895A1E0B0E0089570
:104FC200BA93AA931A930A930895F0E0309708953A
:104FD200A981BA81EE27A10FBE1F0895ABDFE0368B
:104FE200A9E0FA07A0E06A07A0E07A070895E0388E
:104FF200A5E2FA07A0E06A07A0E07A070895E03484
:10500200A8E3FA07A0E06A07A0E07A070895E03073
:10501200ABE4FA07A0E06A07A0E07A070895E0305F
:10502200A6E9FA07A0E06A07A0E07A070895E0304F
:10503200A1EEFA07A0E06A07A0E07A070895E0303F
:10504200A2ECFA07A1E06A07A0E07A0708950E949D
:1050520037218F01002E012A08951A930A93D9014C
:105062000C94D210E00FF11FFA93EA930895F0E046
:10507200FE2FE0E00895FA013396F4CFEFEFFFEF51
:105082000E94FB2D0895E885F985FA93EA93A88595
:10509200B9850895FA93EA93EAE8F0E060E070E0F7
:1050A200CCCDFF27662777270E94902D089588E0B0
:1050B2000E94AD102A960895E0E0F0E00E94FB2DD8
:1050C2000895F8013396FA93EA930895EA85FB85E9
:1050D200FA93EA9308951A930A93D9010E9442130C
:1050E200D8010C945221E0E0F0E00E94FD2D0895D9
:1050F2001A930A933A932A930895A0E0B0E0089590
:10510200D8010E945221E0E0F0E00895FA93EA9378
:10511200EDCDE381F0E00E2B1F2B0895BA93AA93F5
:1051220022970E94F42D0895FA93EA93ED81FE816D
:10513200C3CEEA93A0E0B6E980E090E00C948B1332
:105142009F01E0E0EE83EF83D90181CFFA93EA93E6
:10515200F901E8CEEE81FF813196EE83FF8331972C
:10516200E00FF11F0895A083EE81FF817BCFEE81D6
:10517200FF813496EE83FF83E0E0E887E9870895B4
:10518200DF01E885F985EA56F94FE081EC9308954D
:105192001A930A93A885B9850E94D210EEE8F6E028
:1051A200FA93EA93A5CFA889B989E0918806F0918C
:1051B20089060995F0E0E7FDFFEFAF015523089559
:1051C200D8010E945221EFEFFFEF0895E885F9859B
:1051D2006C857D85A6E0B0E00E94C62CDB010895B7
:1051E200EE81FF813FCFFA014F5F5F4FE00FF11F6A
:1051F2000895EEE8F6E0FA93EA937ACFAE85BF859A
:10520200E0918806F09189060995F0E0E7FDFFEF4D
:105212000895FA93EA93EDA1FEA10895FA93EA9311
:10522200A8E0B0E00C94BD244A93A0E10E944C1A7D
:10523200EFEFFFEF0895EBA1FCA17D96FA93EA93BD
:10524200D9010895ABE01A9FF001E55EF94F089588
:10525200ABE01A9FF001EE5DF94F0895ABE01A9FA3
:10526200F001E65EF94F08950E94632D0E94BC2C66
:10527200DF01CB010C949D11ABE01A9FF001ED5DB3
:10528200F94FDF0132CEF001EF5DF94FA081B0E0BE
:105292000895ABE0A09FF001A19FF00DED5DF94FE5
:1052A2000895ABE0A09FF001A19FF00D0895ABE03F
:1052B2001A9FF001ED5DF94F0895DF010E94632D01
:1052C200DF010E945221F3CFA0E0B0E0A083B183BE
:1052D2000895ABE01A9FF001EF5DF94FA0E0A083C3
:1052E200B7CFA0E0A083ABE01A9FF001E15EF94FD7
:1052F200EBCFA0E0B0E080E090E00E948B2D08951B
:10530200EE81FF813896EE83FF836ACFE987FA87C1
:105312006B877C870895AE81BF811196AE83BF8370
:1053220011970895AA81BB818C819D810895EDEC2E
:10533200FCEC6CEC7DE30E94B22B0895EA81FB81C8
:105342006C817D81A985BA858B859C850895E0E075
:10535200F0E060E87FE30895E0E0F0E060E271E40D
:105362000E94B22B0895A0E0B0E080E09FE3089590
:105372000E94BC2C0E94282B0895A985BA858B8592
:105382009C8508950E949A2D0E945B2BBFCFA8890D
:10539200B989EC91F0E0F0970895A885B9858A85DE
:1053A2009B850895D4DFEC87FD876E877F870895FC
:1053B200AC85BD858E859F850895FADFCDCFEC87BC
:1053C200FD876E877F870895EC85FD856E857F85D5
:1053D2000895ED91FD913196FE93EE930895AC817F
:1053E200BD818E819F81B8CFEC83FD836E837F83E5
:1053F2000895ACDDDDDF0E94452C0895A885B985AE
:105402001196A887B987119708952A93AF81B88515
:10541200E985FA8509950895FE01E65AFF4F019044
:10542200F081E02D08953497DE01A65ABF4FED9327
:10543200FC930895AF81B885E985FA8509950895A9
:10544200DE01A65ABF4F0D90BC91A02D0895EA87A8
:10545200FB876C877D870895DFDFE5CFEA85FB85D3
:105462006C857D850895EE87FF87AE85BF850E9496
:1054720021251E2F0895E4DF14960E94632D0895BE
:10548200E88BF98B6A8B7B8B08950B7FED89EA930E
:10549200DE01A95ABF4F0D90BC91A02DFE01E75A23
:1054A200FF4F0190F081E02D099550300895E88971
:1054B200F9896A897B89AA85BB858C859D85089532
:1054C20090989198889A899815C089988898EE271B
:1054D2000000819B0895809B089504D0899A02D090
:1054E200889AE1E062E107C0899A889A03D0889895
:1054F200F9DF899865E26A95F1F7089578E088986E
:10550200F1DF809BFECFEEDF889481990894889A20
:10551200F1DFEE1F7A9599F77A2F772311F48998A4
:1055220001C0899ADFDF8898E5DF889ADBDF8998F6
:10553200D9CF78E0AA0F10F4899801C0899ADADFEE
:105542008898D0DF809BFECFCDDF889A7A9591F73D
:105552008998C8DF8898CEDFE1E08199EE27889AA2
:10556200C1CF109639F08DEC9AE00197F1F7A8952A
:105572001197C9F7089530976040704009F070584C
:105582000895552342F4503811F4E0FF04C03196D7
:10559200691F791F6BF050E8572711F45F93CFC052
:1055A2005F3F31F0660F000C57956795752F089590
:1055B2005F9300200AF0CFC0C8C050E8192E152210
:1055C200880F991F9527550F879550E8072E0522BA
:1055D200660F771F7527550F67950895689401C068
:1055E200E8945F93F2DF703818F07F3F08F4A7C0A9
:1055F20056E1571BAAF4519558300EF4593030F049
:10560200EFEFFFEF6FEF7FE777F91AC077275523A8
:10561200B9F0EE0FFF1F661F771F5A95D1F710C022
:105622007727583028F0EF2FF62F672F5850F9CFF1
:10563200552331F076956795F795E7955A95D1F709
:1056420000200AF485D15F910895689401C0E8941E
:10565200309760407040B1F0002426F0772312F4B6
:10566200009476D1172E7EE1112032F07A95EE0F5A
:10567200FF1F661F111CF9CFEF2FF62F612D5F93CD
:105682008ADF5F9108954F93AF01FD01DA01AB010B
:10569200BC01CA01402D012C142E4F910895EA0F2E
:1056A200FB1F681F0895E095F0956095EF5FFF4F2F
:1056B2006F4F08955F9381DF903871F150E815269E
:1056C20004C05F937ADF903839F1703821F1572F97
:1056D200591B2BF112F4D7DFFACF583118F0AA2751
:1056E200BB278827583028F0AB2FB82F882758506F
:1056F200F9CF552329F08695B795A7955A95D9F7ED
:10570200502D512572F0CBDF38F46795F795E79568
:10571200739513F420C0B7DF3EDF5F910895D8F789
:10572200FBCFEA1BFB0B680B51F010F40094BBDFBC
:10573200662392F3EE0FFF1F661F7A95CBF7EE27D3
:10574200FF27662777275F910895EFEFFFEF6FE757
:105752007FEF5F910895EFEFFFEF6FE77FE75F91D4
:1057620008955F932ADF703851F3903841F3012492
:105772000894791F23F41CF300203AF3ECCF0F9224
:105782001F932F933F934F93112722279927689FA7
:10579200A0018F9F302D410D591F6B9F300D411D70
:1057A200591F8E9F27D0BF9F25D06A9F23D0BE9FAF
:1057B2001DD0AF9F1BD0AE9F110D291F391F491F4E
:1057C200591FE32FF42F652F522F4F913F912F91A5
:1057D2001F910F9066232AF0550FEE1FFF1F661FC1
:1057E20002C073954BF2CDDE5F910895100D211D1D
:1057F200391F02C0200D311D491F591F08955F93A3
:10580200DCDE703821F411200AF49FCFA4CF903847
:1058120009F495CF01240894970B1BF4D4F30020CC
:10582200F3CF792F1F932F933F934F931124112777
:10583200222733274427552790E2AE17BF07860752
:10584200410730F0AE1BBF0B860B410B089401C021
:105852008894551F221F331F111CAA1FBB1F881FAC
:10586200441F9A9551F7F901612D4F913F912F9164
:105872001F91662332F0550FEE1FFF1F661F7A95A8
:1058820043F27FDE5F91089599239AF0772342F0E5
:10589200971748F029F4AE17BF07860720F031F0BA
:1058A20098948894089598940894089518948894E4
:1058B20008957723C2F7971798F3A9F7EA17FB071A
:1058C200680788F399F3ECCF2FD124975F939F81D8
:1058D200992311F4289633CF12F428963CCF4F9394
:1058E20042E48E81BD81AC8188839983AA83BB8384
:1058F200FD01BC01AC81BD818E819F8180DF8881E9
:105902009981AA81BB81DDDE60DE7A9544DE8881E1
:105912009981AA81BB81AE27A87F21F4BF17860790
:10592200970729F04A9519F0DF01CB01DDCF4F919E
:105932005F91289608950024AF0DB01D0895EA0FD7
:10594200FB1F681F791F0895F195E195F0400895B6
:10595200F09560957095E195FF4F6F4F7F4F0895D9
:10596200EF2FFF27E7FDFFEF0895FE2FFF0FFF0B3D
:105972006F2F7F2F08956F2F660F660B762F089576
:10598200EA17E1E009F0EE270895FA9FF02DEB9F68
:10599200F00DEA9FE02DF10D08957A9F702D6B9F17
:1059A200700DF89F700DE99F700D6A9F602D710D4B
:1059B200FB9F600D711DE89F600D711D8827FA9F86
:1059C200F02D610D781FEB9FF00D611D781FEA9F8E
:1059D200E02DF10D681F781F0895002498E0AA0FAA
:1059E200001C0E1A10F40E0E01C0A1609A95B9F7B0
:1059F200EA2FA02D08955AD0F0DF0EF4E195089514
:105A02000024112490E1AA0FBB1F001C111C0E1AC6
:105A12001F0A18F40E0E1F1E01C0A1609A9599F775
:105A2200FD01D00108953F934F935F930024112409
:105A32004427552730E2AA0FBB1F881F991F001C5D
:105A4200111C441F551F0E1A1F0A460B570B28F430
:105A52000E0E1F1E461F571F01C0A1603A9559F72F
:105A6200FD01BC01D001CA015F914F913F910895A0
:105A7200E894A7FF02C0A1956894E7FDE195ADDF28
:105A8200EA2F0EF4E1950895E894B7FF04C0A095BB
:105A9200B09511966894F7FD57DFB2DFFD010EF461
:105AA20053DF0895C0DFFD01BC010895E894E7FFCC
:105AB20002C0E1956894A7FF04C0A19500F8039481
:105AC20000FA0895ED91FC9111970895ED91FD91E1
:105AD2006D917C9113970895ED91FD916D917D915A
